{
  "contractName": "Crud",
  "abi": [
    {
      "constant": true,
      "inputs": [
        {
          "name": "",
          "type": "uint256"
        }
      ],
      "name": "users",
      "outputs": [
        {
          "name": "name",
          "type": "string"
        },
        {
          "name": "pass_hash",
          "type": "string"
        },
        {
          "name": "id",
          "type": "uint256"
        }
      ],
      "payable": false,
      "stateMutability": "view",
      "type": "function"
    },
    {
      "constant": false,
      "inputs": [
        {
          "name": "in_name",
          "type": "string"
        },
        {
          "name": "in_hash",
          "type": "string"
        }
      ],
      "name": "create",
      "outputs": [],
      "payable": false,
      "stateMutability": "nonpayable",
      "type": "function"
    },
    {
      "constant": true,
      "inputs": [
        {
          "name": "in_name",
          "type": "string"
        }
      ],
      "name": "read",
      "outputs": [
        {
          "name": "",
          "type": "string"
        },
        {
          "name": "",
          "type": "uint256"
        }
      ],
      "payable": false,
      "stateMutability": "view",
      "type": "function"
    },
    {
      "constant": false,
      "inputs": [
        {
          "name": "old_user_name",
          "type": "string"
        },
        {
          "name": "new_user_name",
          "type": "string"
        }
      ],
      "name": "update",
      "outputs": [],
      "payable": false,
      "stateMutability": "nonpayable",
      "type": "function"
    },
    {
      "constant": false,
      "inputs": [
        {
          "name": "user_name",
          "type": "string"
        }
      ],
      "name": "destroy",
      "outputs": [],
      "payable": false,
      "stateMutability": "nonpayable",
      "type": "function"
    }
  ],
  "bytecode": "0x60806040526001805534801561001457600080fd5b50611139806100246000396000f3fe608060405234801561001057600080fd5b5060043610610074576000357c010000000000000000000000000000000000000000000000000000000090048063198e2b8a14610079578063365b98b2146101cb578063616ffe83146102e55780636b9c3c7c14610420578063f4c84d19146104db575b600080fd5b6101c96004803603604081101561008f57600080fd5b81019080803590602001906401000000008111156100ac57600080fd5b8201836020820111156100be57600080fd5b803590602001918460018302840111640100000000831117156100e057600080fd5b91908080601f016020809104026020016040519081016040528093929190818152602001838380828437600081840152601f19601f8201169050808301925050505050505091929192908035906020019064010000000081111561014357600080fd5b82018360208201111561015557600080fd5b8035906020019184600183028401116401000000008311171561017757600080fd5b91908080601f016020809104026020016040519081016040528093929190818152602001838380828437600081840152601f19601f82011690508083019250505050505050919291929050505061062d565b005b6101f7600480360360208110156101e157600080fd5b8101908080359060200190929190505050610751565b604051808060200180602001848152602001838103835286818151815260200191508051906020019080838360005b83811015610241578082015181840152602081019050610226565b50505050905090810190601f16801561026e5780820380516001836020036101000a031916815260200191505b50838103825285818151815260200191508051906020019080838360005b838110156102a757808201518184015260208101905061028c565b50505050905090810190601f1680156102d45780820380516001836020036101000a031916815260200191505b509550505050505060405180910390f35b61039e600480360360208110156102fb57600080fd5b810190808035906020019064010000000081111561031857600080fd5b82018360208201111561032a57600080fd5b8035906020019184600183028401116401000000008311171561034c57600080fd5b91908080601f016020809104026020016040519081016040528093929190818152602001838380828437600081840152601f19601f8201169050808301925050505050505091929192905050506108ba565b6040518080602001838152602001828103825284818151815260200191508051906020019080838360005b838110156103e45780820151818401526020810190506103c9565b50505050905090810190601f1680156104115780820380516001836020036101000a031916815260200191505b50935050505060405180910390f35b6104d96004803603602081101561043657600080fd5b810190808035906020019064010000000081111561045357600080fd5b82018360208201111561046557600080fd5b8035906020019184600183028401116401000000008311171561048757600080fd5b91908080601f016020809104026020016040519081016040528093929190818152602001838380828437600081840152601f19601f820116905080830192505050505050509192919290505050610a2f565b005b61062b600480360360408110156104f157600080fd5b810190808035906020019064010000000081111561050e57600080fd5b82018360208201111561052057600080fd5b8035906020019184600183028401116401000000008311171561054257600080fd5b91908080601f016020809104026020016040519081016040528093929190818152602001838380828437600081840152601f19601f820116905080830192505050505050509192919290803590602001906401000000008111156105a557600080fd5b8201836020820111156105b757600080fd5b803590602001918460018302840111640100000000831117156105d957600080fd5b91908080601f016020809104026020016040519081016040528093929190818152602001838380828437600081840152601f19601f820116905080830192505050505050509192919290505050610b09565b005b61063682610c49565b156106a9576040517f08c379a00000000000000000000000000000000000000000000000000000000081526004018080602001828103825260188152602001807f6372656174653a20696e76616c696420757365726e616d65000000000000000081525060200191505060405180910390fd5b6000606060405190810160405280848152602001838152602001600154815250908060018154018082558091505090600182039060005260206000209060030201600090919290919091506000820151816000019080519060200190610710929190610fa0565b50602082015181600101908051906020019061072d929190610fa0565b50604082015181600201555050506001600081548092919060010191905055505050565b60008181548110151561076057fe5b9060005260206000209060030201600091509050806000018054600181600116156101000203166002900480601f01602080910402602001604051908101604052809291908181526020018280546001816001161561010002031660029004801561080c5780601f106107e15761010080835404028352916020019161080c565b820191906000526020600020905b8154815290600101906020018083116107ef57829003601f168201915b505050505090806001018054600181600116156101000203166002900480601f0160208091040260200160405190810160405280929190818152602001828054600181600116156101000203166002900480156108aa5780601f1061087f576101008083540402835291602001916108aa565b820191906000526020600020905b81548152906001019060200180831161088d57829003601f168201915b5050505050908060020154905083565b606060006108c783610c49565b151561093b576040517f08c379a00000000000000000000000000000000000000000000000000000000081526004018080602001828103825260168152602001807f726561643a20696e76616c696420757365726e616d650000000000000000000081525060200191505060405180910390fd5b600061094684610d47565b905060008181548110151561095757fe5b906000526020600020906003020160000160008281548110151561097757fe5b906000526020600020906003020160020154818054600181600116156101000203166002900480601f016020809104026020016040519081016040528092919081815260200182805460018160011615610100020316600290048015610a1e5780601f106109f357610100808354040283529160200191610a1e565b820191906000526020600020905b815481529060010190602001808311610a0157829003601f168201915b505050505091509250925050915091565b610a3881610c49565b15610a98576000610a4882610d47565b9050600081815481101515610a5957fe5b906000526020600020906003020160008082016000610a789190611020565b600182016000610a889190611020565b6002820160009055505050610b06565b6040517f08c379a00000000000000000000000000000000000000000000000000000000081526004018080602001828103825260198152602001807f64657374726f793a20696e76616c696420757365726e616d650000000000000081525060200191505060405180910390fd5b50565b610b1281610c49565b15610b85576040517f08c379a000000000000000000000000000000000000000000000000000000000815260040180806020018281038252601f8152602001807f7570646174653a206e657720757365726e616d6520697320696e76616c69640081525060200191505060405180910390fd5b610b8e82610c49565b1515610c02576040517f08c379a00000000000000000000000000000000000000000000000000000000081526004018080602001828103825260188152602001807f7570646174653a20696e76616c696420757365726e616d65000000000000000081525060200191505060405180910390fd5b6000610c0d83610d47565b905081600082815481101515610c1f57fe5b90600052602060002090600302016000019080519060200190610c43929190611068565b50505050565b600080600090505b600080549050811015610d3c57610d20600082815481101515610c7057fe5b90600052602060002090600302016000018054600181600116156101000203166002900480601f016020809104026020016040519081016040528092919081815260200182805460018160011615610100020316600290048015610d155780601f10610cea57610100808354040283529160200191610d15565b820191906000526020600020905b815481529060010190602001808311610cf857829003601f168201915b505050505084610ead565b15610d2f576001915050610d42565b8080600101915050610c51565b50600090505b919050565b600080600090505b600080549050811015610e3957610e1e600082815481101515610d6e57fe5b90600052602060002090600302016000018054600181600116156101000203166002900480601f016020809104026020016040519081016040528092919081815260200182805460018160011615610100020316600290048015610e135780601f10610de857610100808354040283529160200191610e13565b820191906000526020600020905b815481529060010190602001808311610df657829003601f168201915b505050505084610ead565b15610e2c5780915050610ea8565b8080600101915050610d4f565b506040517f08c379a00000000000000000000000000000000000000000000000000000000081526004018080602001828103825260168152602001807f66696e643a20696e76616c696420757365726e616d650000000000000000000081525060200191505060405180910390fd5b919050565b6000816040516020018082805190602001908083835b602083101515610ee85780518252602082019150602081019050602083039250610ec3565b6001836020036101000a03801982511681845116808217855250505050505090500191505060405160208183030381529060405280519060200120836040516020018082805190602001908083835b602083101515610f5c5780518252602082019150602081019050602083039250610f37565b6001836020036101000a0380198251168184511680821785525050505050509050019150506040516020818303038152906040528051906020012014905092915050565b828054600181600116156101000203166002900490600052602060002090601f016020900481019282601f10610fe157805160ff191683800117855561100f565b8280016001018555821561100f579182015b8281111561100e578251825591602001919060010190610ff3565b5b50905061101c91906110e8565b5090565b50805460018160011615610100020316600290046000825580601f106110465750611065565b601f01602090049060005260206000209081019061106491906110e8565b5b50565b828054600181600116156101000203166002900490600052602060002090601f016020900481019282601f106110a957805160ff19168380011785556110d7565b828001600101855582156110d7579182015b828111156110d65782518255916020019190600101906110bb565b5b5090506110e491906110e8565b5090565b61110a91905b808211156111065760008160009055506001016110ee565b5090565b9056fea165627a7a72305820ae9d821d6e46dacdfe7e95317949613bef7859b78d1edd2aefa304752ff749940029",
  "source": "pragma solidity ^0.5.0;\n\n\ncontract Crud {\n    struct s_User {\n        string name;\n        string pass_hash;\n        uint256 id;\n    }\n    \n    s_User[] public users;\n    uint256 nextId = 1;\n    \n    function create (string memory in_name, string memory in_hash) public {\n        if(user_exists(in_name)){\n            revert('create: invalid username');\n        }else{\n            users.push( s_User( {name:in_name, pass_hash:in_hash, id:nextId} ) );\n            nextId++;\n        }\n    }\n    \n    function read(string memory in_name) public view returns (string memory, uint256){\n        if(!user_exists(in_name)){\n            revert('read: invalid username');\n        }\n\n        uint256 i = find(in_name);\n        \n        return (users[i].name, users[i].id);\n    }\n    \n    function update(string memory old_user_name, string memory new_user_name) public {\n        if(user_exists(new_user_name)){\n            revert('update: new username is invalid');\n        }\n\n        if(!user_exists(old_user_name)){\n            revert('update: invalid username');\n        }\n        \n        uint256 i = find(old_user_name);\n        users[i].name = new_user_name;\n    }\n    \n    function destroy(string memory user_name) public {\n        if(user_exists(user_name)){\n            uint256 i = find(user_name);\n            delete users[i];\n        }else \n            revert('destroy: invalid username');\n    }    \n\n\n    function find (string memory name) internal view returns(uint256) {\n        for(uint256 i = 0; i < users.length; i++){\n            if(is_str_equal(users[i].name, name)){\n                return i;\n            }\n        }\n        \n        revert('find: invalid username');\n    }\n    \n    function user_exists (string memory name) internal view returns(bool){\n        for(uint256 i = 0; i < users.length; i++){\n            if(is_str_equal(users[i].name, name)){\n                return true;\n            }\n        }\n        \n        return false;\n    }\n    \n    function is_str_equal(string memory s1, string memory s2) internal pure returns(bool){\n        return keccak256(abi.encodePacked(s1)) == keccak256(abi.encodePacked(s2));\n    }\n}\n",
  "sourcePath": "/home/kaustubh/Desktop/Git-Ing-Lat12/DNN_IngressHack/contracts/Crud.sol",
  "compiler": {
    "name": "solc",
    "version": "0.5.2+commit.1df8f40c.Emscripten.clang"
  },
  "schemaVersion": "3.3.3",
  "updatedAt": "2021-02-14T08:56:52.716Z",
  "networkType": "ethereum",
  "devdoc": {
    "methods": {}
  },
  "userdoc": {
    "methods": {}
  }
}