{
  "contractName": "Article",
  "abi": [
    {
      "constant": false,
      "inputs": [
        {
          "internalType": "string",
          "name": "a_id",
          "type": "string"
        }
      ],
      "name": "create_article",
      "outputs": [],
      "payable": false,
      "stateMutability": "nonpayable",
      "type": "function"
    },
    {
      "constant": true,
      "inputs": [
        {
          "internalType": "uint256",
          "name": "index",
          "type": "uint256"
        }
      ],
      "name": "get_article",
      "outputs": [
        {
          "internalType": "string",
          "name": "",
          "type": "string"
        }
      ],
      "payable": false,
      "stateMutability": "view",
      "type": "function"
    },
    {
      "constant": true,
      "inputs": [
        {
          "internalType": "uint256",
          "name": "index",
          "type": "uint256"
        },
        {
          "internalType": "string",
          "name": "a_id",
          "type": "string"
        }
      ],
      "name": "get_comment",
      "outputs": [
        {
          "internalType": "uint256",
          "name": "c_id",
          "type": "uint256"
        },
        {
          "internalType": "string",
          "name": "user_name",
          "type": "string"
        },
        {
          "internalType": "string",
          "name": "text",
          "type": "string"
        },
        {
          "internalType": "string",
          "name": "date",
          "type": "string"
        },
        {
          "internalType": "string",
          "name": "time",
          "type": "string"
        },
        {
          "internalType": "uint256",
          "name": "upvotes",
          "type": "uint256"
        },
        {
          "internalType": "uint256",
          "name": "downvotes",
          "type": "uint256"
        }
      ],
      "payable": false,
      "stateMutability": "view",
      "type": "function"
    },
    {
      "constant": true,
      "inputs": [
        {
          "internalType": "uint256",
          "name": "index",
          "type": "uint256"
        },
        {
          "internalType": "uint256",
          "name": "p_c_id",
          "type": "uint256"
        },
        {
          "internalType": "string",
          "name": "a_id",
          "type": "string"
        }
      ],
      "name": "get_reply",
      "outputs": [
        {
          "internalType": "uint256",
          "name": "c_id",
          "type": "uint256"
        },
        {
          "internalType": "string",
          "name": "user_name",
          "type": "string"
        },
        {
          "internalType": "string",
          "name": "text",
          "type": "string"
        },
        {
          "internalType": "string",
          "name": "date",
          "type": "string"
        },
        {
          "internalType": "string",
          "name": "time",
          "type": "string"
        },
        {
          "internalType": "uint256",
          "name": "upvotes",
          "type": "uint256"
        },
        {
          "internalType": "uint256",
          "name": "downvotes",
          "type": "uint256"
        }
      ],
      "payable": false,
      "stateMutability": "view",
      "type": "function"
    },
    {
      "constant": false,
      "inputs": [
        {
          "internalType": "string",
          "name": "a_id",
          "type": "string"
        },
        {
          "internalType": "string",
          "name": "user_name",
          "type": "string"
        },
        {
          "internalType": "string",
          "name": "text",
          "type": "string"
        },
        {
          "internalType": "string",
          "name": "date",
          "type": "string"
        },
        {
          "internalType": "string",
          "name": "time",
          "type": "string"
        },
        {
          "internalType": "uint256",
          "name": "upvotes",
          "type": "uint256"
        },
        {
          "internalType": "uint256",
          "name": "downvotes",
          "type": "uint256"
        }
      ],
      "name": "add_comment_to_article",
      "outputs": [],
      "payable": false,
      "stateMutability": "nonpayable",
      "type": "function"
    },
    {
      "constant": false,
      "inputs": [
        {
          "internalType": "string",
          "name": "a_id",
          "type": "string"
        },
        {
          "internalType": "uint256",
          "name": "c_id",
          "type": "uint256"
        },
        {
          "internalType": "string",
          "name": "user_name",
          "type": "string"
        },
        {
          "internalType": "string",
          "name": "text",
          "type": "string"
        },
        {
          "internalType": "string",
          "name": "date",
          "type": "string"
        },
        {
          "internalType": "string",
          "name": "time",
          "type": "string"
        },
        {
          "internalType": "uint256",
          "name": "upvotes",
          "type": "uint256"
        },
        {
          "internalType": "uint256",
          "name": "downvotes",
          "type": "uint256"
        }
      ],
      "name": "add_reply_to_comment",
      "outputs": [],
      "payable": false,
      "stateMutability": "nonpayable",
      "type": "function"
    }
  ],
  "bytecode": "0x608060405234801561001057600080fd5b506121fd806100206000396000f3fe608060405234801561001057600080fd5b50600436106100625760003560e01c80632264b6a81461006757806323ca82531461010e57806352b05757146103a55780639831430314610460578063c02bf8ba14610701578063e3a867ba14610a2c575b600080fd5b6100936004803603602081101561007d57600080fd5b8101908080359060200190929190505050610d62565b6040518080602001828103825283818151815260200191508051906020019080838360005b838110156100d35780820151818401526020810190506100b8565b50505050905090810190601f1680156101005780820380516001836020036101000a031916815260200191505b509250505060405180910390f35b6101d16004803603604081101561012457600080fd5b81019080803590602001909291908035906020019064010000000081111561014b57600080fd5b82018360208201111561015d57600080fd5b8035906020019184600183028401116401000000008311171561017f57600080fd5b91908080601f016020809104026020016040519081016040528093929190818152602001838380828437600081840152601f19601f820116905080830192505050505050509192919290505050610ea2565b604051808881526020018060200180602001806020018060200187815260200186815260200185810385528b818151815260200191508051906020019080838360005b8381101561022f578082015181840152602081019050610214565b50505050905090810190601f16801561025c5780820380516001836020036101000a031916815260200191505b5085810384528a818151815260200191508051906020019080838360005b8381101561029557808201518184015260208101905061027a565b50505050905090810190601f1680156102c25780820380516001836020036101000a031916815260200191505b50858103835289818151815260200191508051906020019080838360005b838110156102fb5780820151818401526020810190506102e0565b50505050905090810190601f1680156103285780820380516001836020036101000a031916815260200191505b50858103825288818151815260200191508051906020019080838360005b83811015610361578082015181840152602081019050610346565b50505050905090810190601f16801561038e5780820380516001836020036101000a031916815260200191505b509b50505050505050505050505060405180910390f35b61045e600480360360208110156103bb57600080fd5b81019080803590602001906401000000008111156103d857600080fd5b8201836020820111156103ea57600080fd5b8035906020019184600183028401116401000000008311171561040c57600080fd5b91908080601f016020809104026020016040519081016040528093929190818152602001838380828437600081840152601f19601f820116905080830192505050505050509192919290505050611499565b005b61052d6004803603606081101561047657600080fd5b810190808035906020019092919080359060200190929190803590602001906401000000008111156104a757600080fd5b8201836020820111156104b957600080fd5b803590602001918460018302840111640100000000831117156104db57600080fd5b91908080601f016020809104026020016040519081016040528093929190818152602001838380828437600081840152601f19601f820116905080830192505050505050509192919290505050611557565b604051808881526020018060200180602001806020018060200187815260200186815260200185810385528b818151815260200191508051906020019080838360005b8381101561058b578082015181840152602081019050610570565b50505050905090810190601f1680156105b85780820380516001836020036101000a031916815260200191505b5085810384528a818151815260200191508051906020019080838360005b838110156105f15780820151818401526020810190506105d6565b50505050905090810190601f16801561061e5780820380516001836020036101000a031916815260200191505b50858103835289818151815260200191508051906020019080838360005b8381101561065757808201518184015260208101905061063c565b50505050905090810190601f1680156106845780820380516001836020036101000a031916815260200191505b50858103825288818151815260200191508051906020019080838360005b838110156106bd5780820151818401526020810190506106a2565b50505050905090810190601f1680156106ea5780820380516001836020036101000a031916815260200191505b509b50505050505050505050505060405180910390f35b610a2a600480360360e081101561071757600080fd5b810190808035906020019064010000000081111561073457600080fd5b82018360208201111561074657600080fd5b8035906020019184600183028401116401000000008311171561076857600080fd5b91908080601f016020809104026020016040519081016040528093929190818152602001838380828437600081840152601f19601f820116905080830192505050505050509192919290803590602001906401000000008111156107cb57600080fd5b8201836020820111156107dd57600080fd5b803590602001918460018302840111640100000000831117156107ff57600080fd5b91908080601f016020809104026020016040519081016040528093929190818152602001838380828437600081840152601f19601f8201169050808301925050505050505091929192908035906020019064010000000081111561086257600080fd5b82018360208201111561087457600080fd5b8035906020019184600183028401116401000000008311171561089657600080fd5b91908080601f016020809104026020016040519081016040528093929190818152602001838380828437600081840152601f19601f820116905080830192505050505050509192919290803590602001906401000000008111156108f957600080fd5b82018360208201111561090b57600080fd5b8035906020019184600183028401116401000000008311171561092d57600080fd5b91908080601f016020809104026020016040519081016040528093929190818152602001838380828437600081840152601f19601f8201169050808301925050505050505091929192908035906020019064010000000081111561099057600080fd5b8201836020820111156109a257600080fd5b803590602001918460018302840111640100000000831117156109c457600080fd5b91908080601f016020809104026020016040519081016040528093929190818152602001838380828437600081840152601f19601f8201169050808301925050505050505091929192908035906020019092919080359060200190929190505050611ae2565b005b610d606004803603610100811015610a4357600080fd5b8101908080359060200190640100000000811115610a6057600080fd5b820183602082011115610a7257600080fd5b80359060200191846001830284011164010000000083111715610a9457600080fd5b91908080601f016020809104026020016040519081016040528093929190818152602001838380828437600081840152601f19601f8201169050808301925050505050505091929192908035906020019092919080359060200190640100000000811115610b0157600080fd5b820183602082011115610b1357600080fd5b80359060200191846001830284011164010000000083111715610b3557600080fd5b91908080601f016020809104026020016040519081016040528093929190818152602001838380828437600081840152601f19601f82011690508083019250505050505050919291929080359060200190640100000000811115610b9857600080fd5b820183602082011115610baa57600080fd5b80359060200191846001830284011164010000000083111715610bcc57600080fd5b91908080601f016020809104026020016040519081016040528093929190818152602001838380828437600081840152601f19601f82011690508083019250505050505050919291929080359060200190640100000000811115610c2f57600080fd5b820183602082011115610c4157600080fd5b80359060200191846001830284011164010000000083111715610c6357600080fd5b91908080601f016020809104026020016040519081016040528093929190818152602001838380828437600081840152601f19601f82011690508083019250505050505050919291929080359060200190640100000000811115610cc657600080fd5b820183602082011115610cd857600080fd5b80359060200191846001830284011164010000000083111715610cfa57600080fd5b91908080601f016020809104026020016040519081016040528093929190818152602001838380828437600081840152601f19601f8201169050808301925050505050505091929192908035906020019092919080359060200190929190505050611c06565b005b60606002805490508210610dde576040517f08c379a000000000000000000000000000000000000000000000000000000000815260040180806020018281038252601c8152602001807f6765745f61727469636c6573203a20696e76616c696420696e6465780000000081525060200191505060405180910390fd5b6002826001600280549050030381548110610df557fe5b906000526020600020016000018054600181600116156101000203166002900480601f016020809104026020016040519081016040528092919081815260200182805460018160011615610100020316600290048015610e965780601f10610e6b57610100808354040283529160200191610e96565b820191906000526020600020905b815481529060010190602001808311610e7957829003601f168201915b50505050509050919050565b60006060806060806000806001805490508910610f27576040517f08c379a000000000000000000000000000000000000000000000000000000000815260040180806020018281038252601b8152602001807f6765745f636f6d6d656e74203a20696e76616c696420696e646578000000000081525060200191505060405180910390fd5b60008090506000809050600090505b600180549050811015611055578a821415610f5057611055565b600060018281548110610f5f57fe5b90600052602060002090600902016008015414801561103a575061103960018281548110610f8957fe5b90600052602060002090600902016001018054600181600116156101000203166002900480601f01602080910402602001604051908101604052809291908181526020018280546001816001161561010002031660029004801561102e5780601f106110035761010080835404028352916020019161102e565b820191906000526020600020905b81548152906001019060200180831161101157829003601f168201915b50505050508b611d19565b5b156110485781806001019250505b8080600101915050610f36565b8a82146110ca576040517f08c379a000000000000000000000000000000000000000000000000000000000815260040180806020018281038252601b8152602001807f6765745f636f6d6d656e74203a20696e76616c696420696e646578000000000081525060200191505060405180910390fd5b6110d26120a2565b600182815481106110df57fe5b90600052602060002090600902016040518061012001604052908160008201548152602001600182018054600181600116156101000203166002900480601f01602080910402602001604051908101604052809291908181526020018280546001816001161561010002031660029004801561119c5780601f106111715761010080835404028352916020019161119c565b820191906000526020600020905b81548152906001019060200180831161117f57829003601f168201915b50505050508152602001600282018054600181600116156101000203166002900480601f01602080910402602001604051908101604052809291908181526020018280546001816001161561010002031660029004801561123e5780601f106112135761010080835404028352916020019161123e565b820191906000526020600020905b81548152906001019060200180831161122157829003601f168201915b50505050508152602001600382018054600181600116156101000203166002900480601f0160208091040260200160405190810160405280929190818152602001828054600181600116156101000203166002900480156112e05780601f106112b5576101008083540402835291602001916112e0565b820191906000526020600020905b8154815290600101906020018083116112c357829003601f168201915b50505050508152602001600482018054600181600116156101000203166002900480601f0160208091040260200160405190810160405280929190818152602001828054600181600116156101000203166002900480156113825780601f1061135757610100808354040283529160200191611382565b820191906000526020600020905b81548152906001019060200180831161136557829003601f168201915b50505050508152602001600582018054600181600116156101000203166002900480601f0160208091040260200160405190810160405280929190818152602001828054600181600116156101000203166002900480156114245780601f106113f957610100808354040283529160200191611424565b820191906000526020600020905b81548152906001019060200180831161140757829003601f168201915b505050505081526020016006820154815260200160078201548152602001600882015481525050905080600001518160400151826060015183608001518460a001518560c001518660e00151859550849450839350829250995099509950995099509950995050505092959891949750929550565b6114a281611e08565b156114f8576040517f08c379a00000000000000000000000000000000000000000000000000000000081526004018080602001828103825260228152602001806121a76022913960400191505060405180910390fd5b6115006120ee565b818160000181905250600281908060018154018082558091505090600182039060005260206000200160009091929091909150600082015181600001908051906020019061154f929190612101565b505050505050565b6000606080606080600080600061156e8a8a611f00565b9050808b106115e5576040517f08c379a00000000000000000000000000000000000000000000000000000000081526004018080602001828103825260198152602001807f6765745f7265706c79203a20696e76616c6964207265706c790000000000000081525060200191505060405180910390fd5b60008090506000809050600090505b6001805490508111611711578c82141561160d57611711565b8b6001828154811061161b57fe5b9060005260206000209060090201600801541480156116f657506116f56001828154811061164557fe5b90600052602060002090600902016001018054600181600116156101000203166002900480601f0160208091040260200160405190810160405280929190818152602001828054600181600116156101000203166002900480156116ea5780601f106116bf576101008083540402835291602001916116ea565b820191906000526020600020905b8154815290600101906020018083116116cd57829003601f168201915b50505050508c611d19565b5b156117045781806001019250505b80806001019150506115f4565b6117196120a2565b6001828154811061172657fe5b90600052602060002090600902016040518061012001604052908160008201548152602001600182018054600181600116156101000203166002900480601f0160208091040260200160405190810160405280929190818152602001828054600181600116156101000203166002900480156117e35780601f106117b8576101008083540402835291602001916117e3565b820191906000526020600020905b8154815290600101906020018083116117c657829003601f168201915b50505050508152602001600282018054600181600116156101000203166002900480601f0160208091040260200160405190810160405280929190818152602001828054600181600116156101000203166002900480156118855780601f1061185a57610100808354040283529160200191611885565b820191906000526020600020905b81548152906001019060200180831161186857829003601f168201915b50505050508152602001600382018054600181600116156101000203166002900480601f0160208091040260200160405190810160405280929190818152602001828054600181600116156101000203166002900480156119275780601f106118fc57610100808354040283529160200191611927565b820191906000526020600020905b81548152906001019060200180831161190a57829003601f168201915b50505050508152602001600482018054600181600116156101000203166002900480601f0160208091040260200160405190810160405280929190818152602001828054600181600116156101000203166002900480156119c95780601f1061199e576101008083540402835291602001916119c9565b820191906000526020600020905b8154815290600101906020018083116119ac57829003601f168201915b50505050508152602001600582018054600181600116156101000203166002900480601f016020809104026020016040519081016040528092919081815260200182805460018160011615610100020316600290048015611a6b5780601f10611a4057610100808354040283529160200191611a6b565b820191906000526020600020905b815481529060010190602001808311611a4e57829003601f168201915b505050505081526020016006820154815260200160078201548152602001600882015481525050905080600001518160400151826060015183608001518460a001518560c001518660e001518595508494508393508292509a509a509a509a509a509a509a50505050509397509397509397909450565b611aea6120a2565b611afe6000548960008a8a8a8a8a8a61202b565b905060018190806001815401808255809150509060018203906000526020600020906009020160009091929091909150600082015181600001556020820151816001019080519060200190611b54929190612101565b506040820151816002019080519060200190611b71929190612101565b506060820151816003019080519060200190611b8e929190612101565b506080820151816004019080519060200190611bab929190612101565b5060a0820151816005019080519060200190611bc8929190612101565b5060c0820151816006015560e08201518160070155610100820151816008015550505060008081548092919060010191905055505050505050505050565b611c0e6120a2565b611c216000548a8a8a8a8a8a8a8a61202b565b905060018190806001815401808255809150509060018203906000526020600020906009020160009091929091909150600082015181600001556020820151816001019080519060200190611c77929190612101565b506040820151816002019080519060200190611c94929190612101565b506060820151816003019080519060200190611cb1929190612101565b506080820151816004019080519060200190611cce929190612101565b5060a0820151816005019080519060200190611ceb929190612101565b5060c0820151816006015560e082015181600701556101008201518160080155505050505050505050505050565b6000816040516020018082805190602001908083835b60208310611d525780518252602082019150602081019050602083039250611d2f565b6001836020036101000a03801982511681845116808217855250505050505090500191505060405160208183030381529060405280519060200120836040516020018082805190602001908083835b60208310611dc45780518252602082019150602081019050602083039250611da1565b6001836020036101000a0380198251168184511680821785525050505050509050019150506040516020818303038152906040528051906020012014905092915050565b600080600090505b600280549050811015611ef557611ed960028281548110611e2d57fe5b906000526020600020016000018054600181600116156101000203166002900480601f016020809104026020016040519081016040528092919081815260200182805460018160011615610100020316600290048015611ece5780601f10611ea357610100808354040283529160200191611ece565b820191906000526020600020905b815481529060010190602001808311611eb157829003601f168201915b505050505084611d19565b15611ee8576001915050611efb565b8080600101915050611e10565b50600090505b919050565b600080600090506000600180805490500390505b60018110612020578460018281548110611f2a57fe5b906000526020600020906009020160080154148015612005575061200460018281548110611f5457fe5b90600052602060002090600902016001018054600181600116156101000203166002900480601f016020809104026020016040519081016040528092919081815260200182805460018160011615610100020316600290048015611ff95780601f10611fce57610100808354040283529160200191611ff9565b820191906000526020600020905b815481529060010190602001808311611fdc57829003601f168201915b505050505085611d19565b5b156120135781806001019250505b8080600101915050611f14565b508091505092915050565b6120336120a2565b61203b6120a2565b8a8160000181815250508981602001819052508881610100018181525050878160400181905250868160600181905250858160800181905250848160a00181905250838160c0018181525050828160e0018181525050809150509998505050505050505050565b6040518061012001604052806000815260200160608152602001606081526020016060815260200160608152602001606081526020016000815260200160008152602001600081525090565b6040518060200160405280606081525090565b828054600181600116156101000203166002900490600052602060002090601f016020900481019282601f1061214257805160ff1916838001178555612170565b82800160010185558215612170579182015b8281111561216f578251825591602001919060010190612154565b5b50905061217d9190612181565b5090565b6121a391905b8082111561219f576000816000905550600101612187565b5090565b9056fe6372656174655f61727469636c653a20696e76616c69642061727469636c65206964a265627a7a7231582042cdd9cba5b9b354211595713ca7eaec775a44513bfc8171fd0a550d1111591c64736f6c63430005100032",
  "source": "pragma solidity ^0.5.0;\n\n\ncontract Article {\n    struct s_Com {\n        uint256 c_id;\n        string a_id;\n        \n        string user_name;\n        string text;\n        string date;\n        string time;\n        \n        uint256 upvotes;\n        uint256 downvotes;\n        \n        uint256 parent_cid;\n    }\n    \n    struct s_Article {\n        string a_id;\n    }\n    \n    uint256 com_nextId;\n    s_Com[] comments;\n    s_Article[] articles;\n    \n    \n    function create_article (string memory a_id) public {\n        if(article_exists(a_id)){\n            revert('create_article: invalid article id');\n        }\n        \n        s_Article memory art;\n        art.a_id = a_id;\n        articles.push(art);\n    }\n    \n    function get_article(uint256 index) public view returns(string memory) {\n        if(index >= articles.length){\n            revert('get_articles : invalid index');\n        }\n        \n        return articles[articles.length - 1 - index].a_id;\n    }\n    \n    function get_comment(uint256 index, string memory a_id) public view returns \n    (uint256 c_id, string memory user_name, string memory text, string memory date, string memory time, uint256 upvotes, uint256 downvotes){\n        \n\n        if(index >= comments.length)\n            revert('get_comment : invalid index');\n        \n        uint256 k = 0;\n        uint256 i = 0;\n        for(i = 0; i < comments.length; i++){\n            if(k == index) break;\n            if(comments[i].parent_cid == 0 && is_str_equal(comments[i].a_id, a_id)) k++;\n        }\n        \n        if(k != index)\n            revert('get_comment : invalid index');\n        \n        s_Com memory com = comments[i];\n        return (com.c_id, com.user_name, com.text, com.date, com.time, com.upvotes, com.downvotes);\n    }\n    \n    function get_reply(uint256 index, uint256 p_c_id, string memory a_id) public view returns\n    (uint256 c_id, string memory user_name, string memory text, string memory date, string memory time, uint256 upvotes, uint256 downvotes){\n        uint256 num_rep = num_replies_to_com(p_c_id, a_id);\n        \n        if(index >= num_rep){\n            revert('get_reply : invalid reply');\n        }\n        \n\n        uint256 k = 0;\n        uint256 i = 0;\n        for(i = 0; i <= comments.length; i++){\n            if(k == index) break;\n            if(comments[i].parent_cid == p_c_id && is_str_equal(comments[i].a_id, a_id))\n                k++;\n        }\n    \n        s_Com memory com = comments[i];\n        return (com.c_id, com.user_name, com.text, com.date, com.time, com.upvotes, com.downvotes);\n    }\n\n    function add_comment_to_article(string memory a_id,\n                                    string memory user_name,\n                                    string memory text,\n                                    string memory date,\n                                    string memory time,\n                                    uint256 upvotes, \n                                    uint256 downvotes) public {\n\n        s_Com memory com = create_comment(com_nextId, a_id, 0, user_name, text, date, time, upvotes, downvotes);\n        comments.push(com);\n        com_nextId++;\n    }\n    \n    \n    function add_reply_to_comment(string memory a_id,\n                                  uint256 c_id,\n                                  string memory user_name,\n                                  string memory text,\n                                  string memory date,\n                                  string memory time,\n                                  uint256 upvotes, \n                                  uint256 downvotes) public {\n        \n        s_Com memory rep = create_comment(com_nextId, a_id, c_id, user_name, text, date, time, upvotes, downvotes);\n        comments.push(rep);\n    }\n    \n    \n    function create_comment(uint256 c_id,\n                            string memory a_id,\n                            uint256 parent_cid,\n                            string memory user_name,\n                            string memory text,\n                            string memory date,\n                            string memory time,\n                            uint256 upvotes, \n                            uint256 downvotes) internal pure returns(s_Com memory){\n    \n        s_Com memory com;\n        com.c_id = c_id;\n        com.a_id = a_id;\n        com.parent_cid = parent_cid;\n        com.user_name = user_name;\n        com.text = text;\n        com.date = date;\n        com.time = time;\n        com.upvotes = upvotes;\n        com.downvotes = downvotes;\n        \n        return com;\n    }\n    \n    function find_article (string memory a_id) internal view returns(uint256) {\n        for(uint256 i = 0; i < articles.length; i++){\n            if(is_str_equal(articles[i].a_id, a_id)){\n                return i;\n            }\n        }\n        \n        revert('find article: invalid article id');\n    }\n    \n    function find_comment(uint256 c_id) internal view returns (uint256){\n        for(uint256 i = 0; i < comments.length; i++){\n            if(comments[i].c_id == c_id){\n                return i;\n            }\n        }\n        \n        revert('find comment: invalid comment id');\n    }\n    \n    function article_exists (string memory a_id) internal view returns(bool){\n        for(uint256 i = 0; i < articles.length; i++){\n            if(is_str_equal(articles[i].a_id, a_id)){\n                return true;\n            }\n        }\n        \n        return false;\n    }\n    \n    function num_replies_to_com(uint256 p_c_id, string memory a_id) internal view returns(uint256){\n        uint256 count = 0;\n        for(uint256 i = comments.length - 1; i >= 1; i++){\n            if(comments[i].parent_cid == p_c_id && is_str_equal(comments[i].a_id, a_id)){\n                count++;\n            }\n        }\n        \n        return count;\n    }\n    \n    function is_str_equal(string memory s1, string memory s2) internal pure returns(bool){\n        return keccak256(abi.encodePacked(s1)) == keccak256(abi.encodePacked(s2));\n    }\n}",
  "sourcePath": "/home/a/Node_js/website/contracts/Article.sol",
  "compiler": {
    "name": "solc",
    "version": "0.5.16+commit.9c3226ce.Emscripten.clang"
  },
  "schemaVersion": "3.3.3",
  "updatedAt": "2021-02-14T05:01:42.803Z",
  "devdoc": {
    "methods": {}
  },
  "userdoc": {
    "methods": {}
  }
}