{
  "contractName": "User",
  "abi": [
    {
      "constant": true,
      "inputs": [
        {
          "internalType": "uint256",
          "name": "",
          "type": "uint256"
        }
      ],
      "name": "users",
      "outputs": [
        {
          "internalType": "string",
          "name": "name",
          "type": "string"
        },
        {
          "internalType": "string",
          "name": "pass_hash",
          "type": "string"
        },
        {
          "internalType": "uint256",
          "name": "id",
          "type": "uint256"
        }
      ],
      "payable": false,
      "stateMutability": "view",
      "type": "function"
    },
    {
      "constant": false,
      "inputs": [
        {
          "internalType": "string",
          "name": "in_name",
          "type": "string"
        },
        {
          "internalType": "string",
          "name": "in_hash",
          "type": "string"
        }
      ],
      "name": "create",
      "outputs": [],
      "payable": false,
      "stateMutability": "nonpayable",
      "type": "function"
    },
    {
      "constant": true,
      "inputs": [
        {
          "internalType": "string",
          "name": "in_name",
          "type": "string"
        }
      ],
      "name": "read",
      "outputs": [
        {
          "internalType": "string",
          "name": "",
          "type": "string"
        },
        {
          "internalType": "uint256",
          "name": "",
          "type": "uint256"
        }
      ],
      "payable": false,
      "stateMutability": "view",
      "type": "function"
    },
    {
      "constant": false,
      "inputs": [
        {
          "internalType": "string",
          "name": "old_user_name",
          "type": "string"
        },
        {
          "internalType": "string",
          "name": "new_user_name",
          "type": "string"
        }
      ],
      "name": "update",
      "outputs": [],
      "payable": false,
      "stateMutability": "nonpayable",
      "type": "function"
    },
    {
      "constant": false,
      "inputs": [
        {
          "internalType": "string",
          "name": "user_name",
          "type": "string"
        }
      ],
      "name": "destroy",
      "outputs": [],
      "payable": false,
      "stateMutability": "nonpayable",
      "type": "function"
    }
  ],
  "bytecode": "0x60806040526001805534801561001457600080fd5b5061110e806100246000396000f3fe608060405234801561001057600080fd5b50600436106100575760003560e01c8063198e2b8a1461005c578063365b98b2146101ae578063616ffe83146102c85780636b9c3c7c14610403578063f4c84d19146104be575b600080fd5b6101ac6004803603604081101561007257600080fd5b810190808035906020019064010000000081111561008f57600080fd5b8201836020820111156100a157600080fd5b803590602001918460018302840111640100000000831117156100c357600080fd5b91908080601f016020809104026020016040519081016040528093929190818152602001838380828437600081840152601f19601f8201169050808301925050505050505091929192908035906020019064010000000081111561012657600080fd5b82018360208201111561013857600080fd5b8035906020019184600183028401116401000000008311171561015a57600080fd5b91908080601f016020809104026020016040519081016040528093929190818152602001838380828437600081840152601f19601f820116905080830192505050505050509192919290505050610610565b005b6101da600480360360208110156101c457600080fd5b8101908080359060200190929190505050610733565b604051808060200180602001848152602001838103835286818151815260200191508051906020019080838360005b83811015610224578082015181840152602081019050610209565b50505050905090810190601f1680156102515780820380516001836020036101000a031916815260200191505b50838103825285818151815260200191508051906020019080838360005b8381101561028a57808201518184015260208101905061026f565b50505050905090810190601f1680156102b75780820380516001836020036101000a031916815260200191505b509550505050505060405180910390f35b610381600480360360208110156102de57600080fd5b81019080803590602001906401000000008111156102fb57600080fd5b82018360208201111561030d57600080fd5b8035906020019184600183028401116401000000008311171561032f57600080fd5b91908080601f016020809104026020016040519081016040528093929190818152602001838380828437600081840152601f19601f82011690508083019250505050505050919291929050505061089a565b6040518080602001838152602001828103825284818151815260200191508051906020019080838360005b838110156103c75780820151818401526020810190506103ac565b50505050905090810190601f1680156103f45780820380516001836020036101000a031916815260200191505b50935050505060405180910390f35b6104bc6004803603602081101561041957600080fd5b810190808035906020019064010000000081111561043657600080fd5b82018360208201111561044857600080fd5b8035906020019184600183028401116401000000008311171561046a57600080fd5b91908080601f016020809104026020016040519081016040528093929190818152602001838380828437600081840152601f19601f820116905080830192505050505050509192919290505050610a09565b005b61060e600480360360408110156104d457600080fd5b81019080803590602001906401000000008111156104f157600080fd5b82018360208201111561050357600080fd5b8035906020019184600183028401116401000000008311171561052557600080fd5b91908080601f016020809104026020016040519081016040528093929190818152602001838380828437600081840152601f19601f8201169050808301925050505050505091929192908035906020019064010000000081111561058857600080fd5b82018360208201111561059a57600080fd5b803590602001918460018302840111640100000000831117156105bc57600080fd5b91908080601f016020809104026020016040519081016040528093929190818152602001838380828437600081840152601f19601f820116905080830192505050505050509192919290505050610ae1565b005b61061982610c1d565b1561068c576040517f08c379a00000000000000000000000000000000000000000000000000000000081526004018080602001828103825260188152602001807f6372656174653a20696e76616c696420757365726e616d65000000000000000081525060200191505060405180910390fd5b600060405180606001604052808481526020018381526020016001548152509080600181540180825580915050906001820390600052602060002090600302016000909192909190915060008201518160000190805190602001906106f2929190610f6c565b50602082015181600101908051906020019061070f929190610f6c565b50604082015181600201555050506001600081548092919060010191905055505050565b6000818154811061074057fe5b9060005260206000209060030201600091509050806000018054600181600116156101000203166002900480601f0160208091040260200160405190810160405280929190818152602001828054600181600116156101000203166002900480156107ec5780601f106107c1576101008083540402835291602001916107ec565b820191906000526020600020905b8154815290600101906020018083116107cf57829003601f168201915b505050505090806001018054600181600116156101000203166002900480601f01602080910402602001604051908101604052809291908181526020018280546001816001161561010002031660029004801561088a5780601f1061085f5761010080835404028352916020019161088a565b820191906000526020600020905b81548152906001019060200180831161086d57829003601f168201915b5050505050908060020154905083565b606060006108a783610c1d565b610919576040517f08c379a00000000000000000000000000000000000000000000000000000000081526004018080602001828103825260168152602001807f726561643a20696e76616c696420757365726e616d650000000000000000000081525060200191505060405180910390fd5b600061092484610d19565b90506000818154811061093357fe5b90600052602060002090600302016000016000828154811061095157fe5b906000526020600020906003020160020154818054600181600116156101000203166002900480601f0160208091040260200160405190810160405280929190818152602001828054600181600116156101000203166002900480156109f85780601f106109cd576101008083540402835291602001916109f8565b820191906000526020600020905b8154815290600101906020018083116109db57829003601f168201915b505050505091509250925050915091565b610a1281610c1d565b15610a70576000610a2282610d19565b905060008181548110610a3157fe5b906000526020600020906003020160008082016000610a509190610fec565b600182016000610a609190610fec565b6002820160009055505050610ade565b6040517f08c379a00000000000000000000000000000000000000000000000000000000081526004018080602001828103825260198152602001807f64657374726f793a20696e76616c696420757365726e616d650000000000000081525060200191505060405180910390fd5b50565b610aea81610c1d565b15610b5d576040517f08c379a000000000000000000000000000000000000000000000000000000000815260040180806020018281038252601f8152602001807f7570646174653a206e657720757365726e616d6520697320696e76616c69640081525060200191505060405180910390fd5b610b6682610c1d565b610bd8576040517f08c379a00000000000000000000000000000000000000000000000000000000081526004018080602001828103825260188152602001807f7570646174653a20696e76616c696420757365726e616d65000000000000000081525060200191505060405180910390fd5b6000610be383610d19565b90508160008281548110610bf357fe5b90600052602060002090600302016000019080519060200190610c17929190611034565b50505050565b600080600090505b600080549050811015610d0e57610cf260008281548110610c4257fe5b90600052602060002090600302016000018054600181600116156101000203166002900480601f016020809104026020016040519081016040528092919081815260200182805460018160011615610100020316600290048015610ce75780601f10610cbc57610100808354040283529160200191610ce7565b820191906000526020600020905b815481529060010190602001808311610cca57829003601f168201915b505050505084610e7d565b15610d01576001915050610d14565b8080600101915050610c25565b50600090505b919050565b600080600090505b600080549050811015610e0957610dee60008281548110610d3e57fe5b90600052602060002090600302016000018054600181600116156101000203166002900480601f016020809104026020016040519081016040528092919081815260200182805460018160011615610100020316600290048015610de35780601f10610db857610100808354040283529160200191610de3565b820191906000526020600020905b815481529060010190602001808311610dc657829003601f168201915b505050505084610e7d565b15610dfc5780915050610e78565b8080600101915050610d21565b506040517f08c379a00000000000000000000000000000000000000000000000000000000081526004018080602001828103825260168152602001807f66696e643a20696e76616c696420757365726e616d650000000000000000000081525060200191505060405180910390fd5b919050565b6000816040516020018082805190602001908083835b60208310610eb65780518252602082019150602081019050602083039250610e93565b6001836020036101000a03801982511681845116808217855250505050505090500191505060405160208183030381529060405280519060200120836040516020018082805190602001908083835b60208310610f285780518252602082019150602081019050602083039250610f05565b6001836020036101000a0380198251168184511680821785525050505050509050019150506040516020818303038152906040528051906020012014905092915050565b828054600181600116156101000203166002900490600052602060002090601f016020900481019282601f10610fad57805160ff1916838001178555610fdb565b82800160010185558215610fdb579182015b82811115610fda578251825591602001919060010190610fbf565b5b509050610fe891906110b4565b5090565b50805460018160011615610100020316600290046000825580601f106110125750611031565b601f01602090049060005260206000209081019061103091906110b4565b5b50565b828054600181600116156101000203166002900490600052602060002090601f016020900481019282601f1061107557805160ff19168380011785556110a3565b828001600101855582156110a3579182015b828111156110a2578251825591602001919060010190611087565b5b5090506110b091906110b4565b5090565b6110d691905b808211156110d25760008160009055506001016110ba565b5090565b9056fea265627a7a72315820c9aa14729cdd5050a1aa32e65783489f37a2d110ff24ccd891256f7b3552ebe164736f6c63430005100032",
  "source": "pragma solidity ^0.5.0;\n\n\ncontract User {\n    struct s_User {\n        string name;\n        string pass_hash;\n        uint256 id;\n    }\n    \n    s_User[] public users;\n    uint256 nextId = 1;\n    \n    function create (string memory in_name, string memory in_hash) public {\n        if(user_exists(in_name)){\n            revert('create: invalid username');\n        }else{\n            users.push( s_User( {name:in_name, pass_hash:in_hash, id:nextId} ) );\n            nextId++;\n        }\n    }\n    \n    function read(string memory in_name) public view returns (string memory, uint256){\n        if(!user_exists(in_name)){\n            revert('read: invalid username');\n        }\n\n        uint256 i = find(in_name);\n        \n        return (users[i].name, users[i].id);\n    }\n    \n    function update(string memory old_user_name, string memory new_user_name) public {\n        if(user_exists(new_user_name)){\n            revert('update: new username is invalid');\n        }\n\n        if(!user_exists(old_user_name)){\n            revert('update: invalid username');\n        }\n        \n        uint256 i = find(old_user_name);\n        users[i].name = new_user_name;\n    }\n    \n    function destroy(string memory user_name) public {\n        if(user_exists(user_name)){\n            uint256 i = find(user_name);\n            delete users[i];\n        }else \n            revert('destroy: invalid username');\n    }    \n\n\n    function find (string memory name) internal view returns(uint256) {\n        for(uint256 i = 0; i < users.length; i++){\n            if(is_str_equal(users[i].name, name)){\n                return i;\n            }\n        }\n        \n        revert('find: invalid username');\n    }\n    \n    function user_exists (string memory name) internal view returns(bool){\n        for(uint256 i = 0; i < users.length; i++){\n            if(is_str_equal(users[i].name, name)){\n                return true;\n            }\n        }\n        \n        return false;\n    }\n    \n    function is_str_equal(string memory s1, string memory s2) internal pure returns(bool){\n        return keccak256(abi.encodePacked(s1)) == keccak256(abi.encodePacked(s2));\n    }\n}",
  "sourcePath": "/home/a/Node_js/website/contracts/User.sol",
  "compiler": {
    "name": "solc",
    "version": "0.5.16+commit.9c3226ce.Emscripten.clang"
  },
  "schemaVersion": "3.3.3",
  "updatedAt": "2021-02-14T05:01:42.816Z",
  "devdoc": {
    "methods": {}
  },
  "userdoc": {
    "methods": {}
  }
}